:08000000803102288731ED2F49
:100A2C00FE0012001E00FE0B172D00347C08840003
:100A3C007D0885001200031908007C0884007D08DD
:100A4C0085001200253A031D4A2D0130FC070030A9
:100A5C00FD3D7C0884007D0885000008D03E200008
:100A6C00A0002008A100A11B442D2108803A783E4B
:100A7C000318442DF501F50A2108512DF501F50A4D
:100A8C0025308531D9258531F501F50A7C0884009E
:100A9C007D08850000088531D92585310130FC079A
:100AAC000030FD3D1C2D7030210099000C142300EA
:100ABC000C1403302000AC002C0821009D041E08EF
:100ACC000030873105278531F50101308531D92575
:100ADC0085310030FC008830FD0085311C258531C6
:100AEC0021001C082000AC00AD012C08A0002D0832
:100AFC00A1000430AE002E08A20087315C2785319E
:100B0C0003302000AC002C0821009D04293020006B
:100B1C00AD009630AC007F30890B922DAC0B922D32
:100B2C00AD0B922D6A2D0C34123412340C3400346B
:100B3C00003400340034003404340E341F340E34CA
:100B4C0004340034003404340434043404341F34C6
:100B5C000E34043400340A34153411340A34043499
:100B6C000034003400340A341F341F340E3404347F
:100B7C0000340034003400340034003400340034C9
:100B8C0000340034003400340034003400340034B9
:100B9C0000340034003400340034003400340034A9
:100BAC00003400340034FA007A08F6000430F636CB
:100BBC00890BDD2D7608F7007708F8007A080F39D5
:100BCC00F6007608F9007508031DEF2D20000E12B3
:100BDC00F12D20000E160032003220000E170E08E8
:100BEC00F0397804F6007608FB007B088E000032A2
:100BFC0000320032003220000E130032003200327C
:100C0C00003220000E170E08F0397904F600760831
:100C1C00FB007B088E0000320032003200322000D4
:100C2C000E13003200320032003286316326080087
:100C3C00F601F31F282EF209F309F20A0319F30A3D
:100C4C00F601F60AF11F2F2EF009F109F00A03192B
:100C5C00F10A700871040319562EF501F50AF11BFF
:100C6C00412E0130F035F10D890B382E0130F40096
:100C7C007408F507352E71087302031D472E700892
:100C8C007202031C4D2E7008F2027108F33B013006
:100C9C00F136F00C890B4E2E0130F502031D412E5E
:100CAC00760803195E2EF209F309F20A0319F30A06
:100CBC007308F1007208F0000800F4010F30F00026
:100CCC00700821008E0420008E160E1200320032A5
:100CDC0020000E170032003220000E08F0007008C1
:100CEC00F4007408F0000330F035FF3E031D7A2E3B
:100CFC007035F1007108F4000032003220000E1340
:100D0C00003200320032003220000E170032003266
:100D1C0020000E08F0007008F3000F30F00070088F
:100D2C00F30574087304F0007008F400740880393B
:100D3C00F0007008F2000032003220000E13003276
:100D4C000032003200327208031D6E2E20008E120B
:100D5C00F030F000700821008E050800F601F11F3C
:100D6C00BE2EF009F109F00A0319F10AF601F60A90
:100D7C00F31FC92EF209F309F20A0319F30A013021
:100D8C00F4007408F606F701F801700871040319F1
:100D9C00F82EF501F50AF11BDD2E0130F035F10DC1
:100DAC00890BD42E0130F4007408F507D12E0130D4
:100DBC00F735F80D890BDE2E71087302031DE82E32
:100DCC0070087202031CEF2E7008F2027108F33BDC
:100DDC0077140130F136F00C890BF02E0130F5024E
:100DEC00031DDD2E76080319002FF709F809F70A01
:100DFC000319F80A7808F1007708F00008002000C1
:100E0C00A0000230FD003830FC00AD30890B0C2FF7
:100E1C00FC0B0C2FFD0B0C2F0000F030FC007C08A1
:100E2C0021008E050E130E128E12F030FC007C0881
:100E3C0020008E050E138E120E120032003220008E
:100E4C000E178E14003200320032003220000E13C6
:100E5C000032003200320032863163268731F501D0
:100E6C0028308531D9258731F501200020080C3830
:100E7C008531D9258731F50140308531D925873128
:100E8C002000A1014030210203180800F501F50AE9
:100E9C002108A03E8600870101088531D9258731BC
:100EAC000130FC007C082000A107482F2F30860061
:100EBC000030870023308400003085000530FC00B2
:100ECC0016001A00FC0B662F04302000AA0000301C
:100EDC00AB00A801A901A11F7F2FF501F50A2D3048
:100EEC008531D92587312000A009A109A00A031951
:100EFC00A10A200821040319AC2F0A30F00000309D
:100F0C00F1002108F3002008F20086311E268731FB
:100F1C007008FC0020002A08233E860087017C080C
:100F2C0081000A30F0000030F1002108F3002008A5
:100F3C00F2008631B426873171082000A1007008B8
:100F4C00A000FF30AA07FF30AB3D7F2F220A031908
:100F5C00B42FBC2F0130A8070030A93D2808233E30
:100F6C00860087010108031DCC2FB02F2208FC003E
:100F7C00FD01FC1BFD03FC09FD09FC0A0319FD0A1C
:100F8C007C08053EA80000307D3DA9002908AB0077
:100F9C002808AA002B08803AFC0080307C02031D34
:100FAC00D92F05302A0203180800F501F50A200094
:100FBC002A08233E860087010108303E8531D92559
:100FCC00873101302000AA070030AB3DD02F99307B
:100FDC00840085308500A0308600003087004030CA
:100FEC0085311625AF01B001B101B201B30120006A
:0A0FFC008531592D56343D34003480
:020000040001F9
:04000E00E4FFFFFF0D
:00000001FF
